{
  "contractName": "Owner",
  "abi": [
    {
      "inputs": [],
      "stateMutability": "nonpayable",
      "type": "constructor"
    },
    {
      "inputs": [
        {
          "internalType": "address",
          "name": "newOwner",
          "type": "address"
        }
      ],
      "name": "changeOwner",
      "outputs": [
        {
          "internalType": "bool",
          "name": "",
          "type": "bool"
        }
      ],
      "stateMutability": "nonpayable",
      "type": "function"
    }
  ],
  "bytecode": "0x608060405234801561001057600080fd5b50336000806101000a81548173ffffffffffffffffffffffffffffffffffffffff021916908373ffffffffffffffffffffffffffffffffffffffff1602179055506102b2806100606000396000f3fe608060405234801561001057600080fd5b506004361061002b5760003560e01c8063a6f9dae114610030575b600080fd5b61004a6004803603810190610045919061019c565b610060565b60405161005791906101e4565b60405180910390f35b60003373ffffffffffffffffffffffffffffffffffffffff1660008054906101000a900473ffffffffffffffffffffffffffffffffffffffff1673ffffffffffffffffffffffffffffffffffffffff16146100f0576040517f08c379a00000000000000000000000000000000000000000000000000000000081526004016100e79061025c565b60405180910390fd5b816000806101000a81548173ffffffffffffffffffffffffffffffffffffffff021916908373ffffffffffffffffffffffffffffffffffffffff16021790555060019050919050565b600080fd5b600073ffffffffffffffffffffffffffffffffffffffff82169050919050565b60006101698261013e565b9050919050565b6101798161015e565b811461018457600080fd5b50565b60008135905061019681610170565b92915050565b6000602082840312156101b2576101b1610139565b5b60006101c084828501610187565b91505092915050565b60008115159050919050565b6101de816101c9565b82525050565b60006020820190506101f960008301846101d5565b92915050565b600082825260208201905092915050565b7f4552524f523a2043414c4c4552204953204e4f54204f574e4552000000000000600082015250565b6000610246601a836101ff565b915061025182610210565b602082019050919050565b6000602082019050818103600083015261027581610239565b905091905056fea26469706673582212201db6f498045bf22756c44fe5ccde2ee87d1e58c2af7db7dbe4eb6db2c62d579564736f6c634300080a0033",
  "immutableReferences": {},
  "source": "// SPDX-License-Identifier: MIT\npragma solidity 0.8.10;\n\n\n\ncontract Owner {\n    address owner;\n    \n    constructor(){\n        owner = msg.sender;\n    }\n\n    function changeOwner(address newOwner) external onlyOwner returns(bool) {\n        owner = newOwner;\n        return true;\n    }\n   \n   modifier onlyOwner(){\n       require(owner == msg.sender , \"ERROR: CALLER IS NOT OWNER\");\n       _;\n   }\n}",
  "sourcePath": "/mnt/Data/dev/consensys/eth-staking-dapp/contracts/Owner.sol",
  "compiler": {
    "name": "solc",
    "version": "0.8.10+commit.fc410830.Emscripten.clang"
  },
  "schemaVersion": "3.4.3",
  "updatedAt": "2021-12-23T14:21:58.766Z",
  "devdoc": {
    "kind": "dev",
    "methods": {},
    "version": 1
  },
  "userdoc": {
    "kind": "user",
    "methods": {},
    "version": 1
  }
}