{
  "contractName": "StakingDApp",
  "abi": [
    {
      "inputs": [
        {
          "internalType": "address",
          "name": "ntAddress",
          "type": "address"
        }
      ],
      "stateMutability": "nonpayable",
      "type": "constructor"
    },
    {
      "anonymous": false,
      "inputs": [
        {
          "indexed": false,
          "internalType": "address",
          "name": "staker",
          "type": "address"
        },
        {
          "indexed": false,
          "internalType": "uint256",
          "name": "amount",
          "type": "uint256"
        },
        {
          "indexed": false,
          "internalType": "uint256",
          "name": "reward",
          "type": "uint256"
        }
      ],
      "name": "Staked",
      "type": "event"
    },
    {
      "inputs": [],
      "name": "baseRawardShare",
      "outputs": [
        {
          "internalType": "uint256",
          "name": "",
          "type": "uint256"
        }
      ],
      "stateMutability": "view",
      "type": "function",
      "constant": true
    },
    {
      "inputs": [],
      "name": "baseStakingPeriod",
      "outputs": [
        {
          "internalType": "uint256",
          "name": "",
          "type": "uint256"
        }
      ],
      "stateMutability": "view",
      "type": "function",
      "constant": true
    },
    {
      "inputs": [
        {
          "internalType": "address",
          "name": "newOwner",
          "type": "address"
        }
      ],
      "name": "changeOwner",
      "outputs": [
        {
          "internalType": "bool",
          "name": "",
          "type": "bool"
        }
      ],
      "stateMutability": "nonpayable",
      "type": "function"
    },
    {
      "inputs": [],
      "name": "stake",
      "outputs": [],
      "stateMutability": "payable",
      "type": "function",
      "payable": true
    },
    {
      "inputs": [],
      "name": "getTimer",
      "outputs": [
        {
          "internalType": "uint256",
          "name": "",
          "type": "uint256"
        }
      ],
      "stateMutability": "view",
      "type": "function",
      "constant": true
    },
    {
      "inputs": [],
      "name": "unstake",
      "outputs": [
        {
          "internalType": "uint256",
          "name": "",
          "type": "uint256"
        }
      ],
      "stateMutability": "nonpayable",
      "type": "function"
    },
    {
      "inputs": [],
      "name": "getRewardBalance",
      "outputs": [
        {
          "internalType": "uint256",
          "name": "",
          "type": "uint256"
        }
      ],
      "stateMutability": "view",
      "type": "function",
      "constant": true
    },
    {
      "inputs": [],
      "name": "isStaked",
      "outputs": [
        {
          "internalType": "bool",
          "name": "",
          "type": "bool"
        }
      ],
      "stateMutability": "view",
      "type": "function",
      "constant": true
    },
    {
      "inputs": [],
      "name": "valueStaked",
      "outputs": [
        {
          "internalType": "uint256",
          "name": "",
          "type": "uint256"
        }
      ],
      "stateMutability": "view",
      "type": "function",
      "constant": true
    },
    {
      "inputs": [
        {
          "internalType": "uint256",
          "name": "_baseStakingPeriod",
          "type": "uint256"
        },
        {
          "internalType": "uint256",
          "name": "_baseRewardShare",
          "type": "uint256"
        }
      ],
      "name": "changeBaseInfo",
      "outputs": [
        {
          "internalType": "bool",
          "name": "",
          "type": "bool"
        }
      ],
      "stateMutability": "nonpayable",
      "type": "function"
    }
  ],
  "bytecode": "0x6080604052600f60025560086003553480156200001b57600080fd5b50604051620010f7380380620010f7833981810160405281019062000041919062000133565b336000806101000a81548173ffffffffffffffffffffffffffffffffffffffff021916908373ffffffffffffffffffffffffffffffffffffffff16021790555080600160006101000a81548173ffffffffffffffffffffffffffffffffffffffff021916908373ffffffffffffffffffffffffffffffffffffffff1602179055505062000165565b600080fd5b600073ffffffffffffffffffffffffffffffffffffffff82169050919050565b6000620000fb82620000ce565b9050919050565b6200010d81620000ee565b81146200011957600080fd5b50565b6000815190506200012d8162000102565b92915050565b6000602082840312156200014c576200014b620000c9565b5b60006200015c848285016200011c565b91505092915050565b610f8280620001756000396000f3fe6080604052600436106100915760003560e01c8063a7203d3411610059578063a7203d341461015e578063b619c9bd14610189578063c1cfb904146101b4578063e3323aba146101f1578063f8da5ca31461021c57610091565b80632def6620146100965780633a4b66f1146100c15780635e42b455146100cb5780636ae5b46a146100f6578063a6f9dae114610121575b600080fd5b3480156100a257600080fd5b506100ab610247565b6040516100b89190610a56565b60405180910390f35b6100c9610468565b005b3480156100d757600080fd5b506100e06106ea565b6040516100ed9190610a56565b60405180910390f35b34801561010257600080fd5b5061010b61078d565b6040516101189190610a56565b60405180910390f35b34801561012d57600080fd5b5061014860048036038101906101439190610ad4565b6107d7565b6040516101559190610b1c565b60405180910390f35b34801561016a57600080fd5b506101736108b0565b6040516101809190610a56565b60405180910390f35b34801561019557600080fd5b5061019e610932565b6040516101ab9190610a56565b60405180910390f35b3480156101c057600080fd5b506101db60048036038101906101d69190610b63565b610938565b6040516101e89190610b1c565b60405180910390f35b3480156101fd57600080fd5b506102066109e0565b6040516102139190610b1c565b60405180910390f35b34801561022857600080fd5b50610231610a37565b60405161023e9190610a56565b60405180910390f35b6000600460003373ffffffffffffffffffffffffffffffffffffffff1673ffffffffffffffffffffffffffffffffffffffff16815260200190815260200160002060040160009054906101000a900460ff166102d8576040517f08c379a00000000000000000000000000000000000000000000000000000000081526004016102cf90610c00565b60405180910390fd5b6000600460003373ffffffffffffffffffffffffffffffffffffffff1673ffffffffffffffffffffffffffffffffffffffff1681526020019081526020016000206040518060a0016040529081600082015481526020016001820154815260200160028201548152602001600382015481526020016004820160009054906101000a900460ff16151515158152505090506000816080019015159081151581525050600081600001519050600082600001818152505081600460003373ffffffffffffffffffffffffffffffffffffffff1673ffffffffffffffffffffffffffffffffffffffff1681526020019081526020016000206000820151816000015560208201518160010155604082015181600201556060820151816003015560808201518160040160006101000a81548160ff0219169083151502179055509050503373ffffffffffffffffffffffffffffffffffffffff166108fc829081150290604051600060405180830381858888f1935050505015801561045f573d6000803e3d6000fd5b50809250505090565b600460003373ffffffffffffffffffffffffffffffffffffffff1673ffffffffffffffffffffffffffffffffffffffff16815260200190815260200160002060040160009054906101000a900460ff16156104f8576040517f08c379a00000000000000000000000000000000000000000000000000000000081526004016104ef90610c6c565b60405180910390fd5b6000341161053b576040517f08c379a000000000000000000000000000000000000000000000000000000000815260040161053290610cd8565b60405180910390fd5b60006040518060a001604052803481526020016002548152602001428152602001600354815260200160011515815250905080600460003373ffffffffffffffffffffffffffffffffffffffff1673ffffffffffffffffffffffffffffffffffffffff1681526020019081526020016000206000820151816000015560208201518160010155604082015181600201556060820151816003015560808201518160040160006101000a81548160ff0219169083151502179055509050506000600354346106089190610d56565b9050600160009054906101000a900473ffffffffffffffffffffffffffffffffffffffff1673ffffffffffffffffffffffffffffffffffffffff1663a9059cbb33836040518363ffffffff1660e01b8152600401610667929190610d96565b6020604051808303816000875af1158015610686573d6000803e3d6000fd5b505050506040513d601f19601f820116820180604052508101906106aa9190610deb565b507f1449c6dd7851abc30abf37f57715f492010519147cc2652fbc38202c18a6ee903334836040516106de93929190610e18565b60405180910390a15050565b6000600160009054906101000a900473ffffffffffffffffffffffffffffffffffffffff1673ffffffffffffffffffffffffffffffffffffffff166370a08231336040518263ffffffff1660e01b81526004016107479190610e4f565b602060405180830381865afa158015610764573d6000803e3d6000fd5b505050506040513d601f19601f820116820180604052508101906107889190610e7f565b905090565b6000600460003373ffffffffffffffffffffffffffffffffffffffff1673ffffffffffffffffffffffffffffffffffffffff16815260200190815260200160002060000154905090565b60003373ffffffffffffffffffffffffffffffffffffffff1660008054906101000a900473ffffffffffffffffffffffffffffffffffffffff1673ffffffffffffffffffffffffffffffffffffffff1614610867576040517f08c379a000000000000000000000000000000000000000000000000000000000815260040161085e90610ef8565b60405180910390fd5b816000806101000a81548173ffffffffffffffffffffffffffffffffffffffff021916908373ffffffffffffffffffffffffffffffffffffffff16021790555060019050919050565b600080600460003373ffffffffffffffffffffffffffffffffffffffff1673ffffffffffffffffffffffffffffffffffffffff168152602001908152602001600020905060008160020154426109069190610f18565b9050600254811061091c5760009250505061092f565b8060025461092a9190610f18565b925050505b90565b60025481565b60003373ffffffffffffffffffffffffffffffffffffffff1660008054906101000a900473ffffffffffffffffffffffffffffffffffffffff1673ffffffffffffffffffffffffffffffffffffffff16146109c8576040517f08c379a00000000000000000000000000000000000000000000000000000000081526004016109bf90610ef8565b60405180910390fd5b82600281905550816003819055506001905092915050565b6000600460003373ffffffffffffffffffffffffffffffffffffffff1673ffffffffffffffffffffffffffffffffffffffff16815260200190815260200160002060040160009054906101000a900460ff16905090565b60035481565b6000819050919050565b610a5081610a3d565b82525050565b6000602082019050610a6b6000830184610a47565b92915050565b600080fd5b600073ffffffffffffffffffffffffffffffffffffffff82169050919050565b6000610aa182610a76565b9050919050565b610ab181610a96565b8114610abc57600080fd5b50565b600081359050610ace81610aa8565b92915050565b600060208284031215610aea57610ae9610a71565b5b6000610af884828501610abf565b91505092915050565b60008115159050919050565b610b1681610b01565b82525050565b6000602082019050610b316000830184610b0d565b92915050565b610b4081610a3d565b8114610b4b57600080fd5b50565b600081359050610b5d81610b37565b92915050565b60008060408385031215610b7a57610b79610a71565b5b6000610b8885828601610b4e565b9250506020610b9985828601610b4e565b9150509250929050565b600082825260208201905092915050565b7f4552524f523a20594f5520415245204e4f54205354414b494e47210000000000600082015250565b6000610bea601b83610ba3565b9150610bf582610bb4565b602082019050919050565b60006020820190508181036000830152610c1981610bdd565b9050919050565b7f4552524f523a20594f552041524520414c5245414459205354414b494e472100600082015250565b6000610c56601f83610ba3565b9150610c6182610c20565b602082019050919050565b60006020820190508181036000830152610c8581610c49565b9050919050565b7f4552524f523a2056414c5545204953205a45524f210000000000000000000000600082015250565b6000610cc2601583610ba3565b9150610ccd82610c8c565b602082019050919050565b60006020820190508181036000830152610cf181610cb5565b9050919050565b7f4e487b7100000000000000000000000000000000000000000000000000000000600052601260045260246000fd5b7f4e487b7100000000000000000000000000000000000000000000000000000000600052601160045260246000fd5b6000610d6182610a3d565b9150610d6c83610a3d565b925082610d7c57610d7b610cf8565b5b828204905092915050565b610d9081610a96565b82525050565b6000604082019050610dab6000830185610d87565b610db86020830184610a47565b9392505050565b610dc881610b01565b8114610dd357600080fd5b50565b600081519050610de581610dbf565b92915050565b600060208284031215610e0157610e00610a71565b5b6000610e0f84828501610dd6565b91505092915050565b6000606082019050610e2d6000830186610d87565b610e3a6020830185610a47565b610e476040830184610a47565b949350505050565b6000602082019050610e646000830184610d87565b92915050565b600081519050610e7981610b37565b92915050565b600060208284031215610e9557610e94610a71565b5b6000610ea384828501610e6a565b91505092915050565b7f4552524f523a2043414c4c4552204953204e4f54204f574e4552000000000000600082015250565b6000610ee2601a83610ba3565b9150610eed82610eac565b602082019050919050565b60006020820190508181036000830152610f1181610ed5565b9050919050565b6000610f2382610a3d565b9150610f2e83610a3d565b925082821015610f4157610f40610d27565b5b82820390509291505056fea2646970667358221220fe7e017220291c69f92f47bccbd14ed723d219ea50473a53bd5fa48656c6229864736f6c634300080a0033",
  "immutableReferences": {},
  "source": "// SPDX-License-Identifier: MIT\npragma solidity 0.8.10;\n\nimport \"./interfaces/IERC20.sol\";\nimport \"./Owner.sol\";\n\ncontract StakingDApp is Owner{\n\n    IERC20 nt; // platform's native token\n\n    uint public baseStakingPeriod = 15 seconds; // yearly staking\n    uint public baseRawardShare = 8; // staking share per year\n\n\n    mapping (address => Staker)  stakers;\n\n    struct Staker{\n        uint valueStaked;\n        uint stakingPeriod;\n        uint stakedAt;\n        uint rewardShare;\n        bool staked;\n    }\n\n    constructor(address ntAddress) Owner(){\n        nt = IERC20(ntAddress);\n    }\n\n\n    function stake() external payable notStaked notZeroValue{\n        Staker memory staker= Staker({\n            valueStaked: msg.value,\n            stakingPeriod:baseStakingPeriod,\n            stakedAt:block.timestamp,\n            rewardShare: baseRawardShare,\n            staked:true\n        });\n        stakers[msg.sender] = staker;\n        uint share = msg.value / baseRawardShare;\n        nt.transfer(msg.sender, share);\n        emit Staked(msg.sender,msg.value,share);\n\n    }\n\n    function getTimer() external view returns(uint){\n        Staker storage staker = stakers[msg.sender];\n        uint age=block.timestamp - staker.stakedAt;\n        if(age >= baseStakingPeriod){\n            return 0;\n        }\n       return baseStakingPeriod - age;\n    }\n    function unstake() external staked returns(uint){\n      Staker memory staker = stakers[msg.sender];\n      staker.staked = false;\n      uint value= staker.valueStaked;\n      staker.valueStaked =0;\n      stakers[msg.sender] = staker;\n      payable(msg.sender).transfer(value);\n      return value;\n    }\n\n    function getRewardBalance() external view returns(uint){\n        return nt.balanceOf(msg.sender);\n    }\n    function isStaked() external view returns(bool) {\n\n      return stakers[msg.sender].staked;\n    }\n    function valueStaked() external view returns(uint) {\n\n      return stakers[msg.sender].valueStaked;\n    }\n\n\n    function changeBaseInfo(uint _baseStakingPeriod , uint _baseRewardShare) external onlyOwner returns(bool){\n        baseStakingPeriod = _baseStakingPeriod;\n        baseRawardShare = _baseRewardShare;\n        return true;\n    }\n\n\n\n    event Staked(address staker, uint amount,uint reward);\n\n\n    modifier notStaked(){\n        require(!stakers[msg.sender].staked , \"ERROR: YOU ARE ALREADY STAKING!\");\n        _;\n    }\n\n    modifier staked(){\n        require(stakers[msg.sender].staked , \"ERROR: YOU ARE NOT STAKING!\");\n        _;\n    }\n\n    modifier notZeroValue(){\n        require(msg.value > 0 , \"ERROR: VALUE IS ZERO!\");\n        _;\n    }\n\n\n\n\n}\n",
  "sourcePath": "/mnt/Data/dev/consensys/eth-staking-dapp/contracts/StakingDApp.sol",
  "compiler": {
    "name": "solc",
    "version": "0.8.10+commit.fc410830.Emscripten.clang"
  },
  "schemaVersion": "3.4.3",
  "updatedAt": "2022-01-01T11:01:44.844Z",
  "networkType": "ethereum",
  "devdoc": {
    "kind": "dev",
    "methods": {},
    "version": 1
  },
  "userdoc": {
    "kind": "user",
    "methods": {},
    "version": 1
  }
}